:020000040800F2
:1000000000000320996E00086D6B00086F6B0008FC
:10001000716B0008736B0008756B0008000000002E
:10002000000000000000000000000000776B0008E6
:10003000796B0008000000007B6B00087D6B0008F6
:10004000ED6E0008ED6E0008ED6E0008BD6B000857
:10005000ED6E0008ED6E0008ED6E0008ED6E000814
:10006000ED6E0008ED6E0008ED6E0008856B00086F
:10007000ED6E0008ED6E0008ED6E0008ED6E0008F4
:10008000ED6E0008ED6E0008956B0008ED6E00083F
:10009000ED6E0008ED6E0008ED6E0008ED6E0008D4
:1000A000ED6E0008ED6E0008ED6E0008ED6E0008C4
:1000B000A56B0008ED6E0008ED6E0008ED6E0008FF
:1000C000ED6E0008ED6E0008ED6E0008ED6E0008A4
:1000D000ED6E0008ED6E0008ED6E0008ED6E000894
:1000E000ED6E0008ED6E0008ED6E0008ED6E000884
:1000F000C56B0008CD6B0008B56B0008ED6E0008FD
:10010000ED6E0008ED6E0008ED6E0008ED6E000863
:10011000ED6E0008ED6E0008ED6E0008ED6E000853
:10012000ED6E0008ED6E0008ED6E0008ED6E000843
:0C013000ED6E0008ED6E0008ED6E00089A
:1001400010B5054C237833B9044B13B10448AFF311
:1001500000800123237010BD040200200000000075
:100160001880000808B5034B1BB103490348AFF3DF
:10017000008008BD00000000080200201880000870
:1001800081F0004102E000BF83F0004330B54FEA48
:1001900041044FEA430594EA050F08BF90EA020FB5
:1001A0001FBF54EA000C55EA020C7FEA645C7FEA48
:1001B000655C00F0E2804FEA5454D4EB5555B8BF6B
:1001C0006D420CDD2C4480EA020281EA030382EADC
:1001D000000083EA010180EA020281EA0303362D6E
:1001E00088BF30BD11F0004F4FEA01314FF4801C41
:1001F0004CEA113102D0404261EB410113F0004F53
:100200004FEA03334CEA133302D0524263EB430309
:1002100094EA050F00F0A780A4F10104D5F1200EA7
:100220000DDB02FA0EFC22FA05F2801841F1000102
:1002300003FA0EF2801843FA05F359410EE0A5F1D6
:1002400020050EF1200E012A03FA0EFC28BF4CF007
:10025000020C43FA05F3C01851EBE37101F00045BD
:1002600007D54FF0000EDCF1000C7EEB00006EEBCA
:100270000101B1F5801F1BD3B1F5001F0CD3490854
:100280005FEA30004FEA3C0C04F101044FEA4452AB
:1002900012F5800F80F09A80BCF1004F08BF5FEA32
:1002A000500C50F1000041EB045141EA050130BD12
:1002B0005FEA4C0C404141EB010111F4801FA4F1B5
:1002C0000104E9D191F0000F04BF01460020B1FA0A
:1002D00081F308BF2033A3F10B03B3F120020CDA42
:1002E0000C3208DD02F1140CC2F10C0201FA0CF020
:1002F00021FA02F10CE002F11402D8BFC2F1200C85
:1003000001FA02F120FA0CFCDCBF41EA0C0190403A
:10031000E41AA2BF01EB0451294330BD6FEA040483
:100320001F3C1CDA0C340EDC04F11404C4F120026E
:1003300020FA04F001FA02F340EA030021FA04F380
:1003400045EA030130BDC4F10C04C4F1200220FAD7
:1003500002F001FA04F340EA0300294630BD21FA15
:1003600004F0294630BD94F0000F83F4801306BFDB
:1003700081F480110134013D4EE77FEA645C18BFCF
:100380007FEA655C29D094EA050F08BF90EA020F66
:1003900005D054EA000C04BF1946104630BD91EA5E
:1003A000030F1EBF0021002030BD5FEA545C05D161
:1003B0004000494128BF41F0004130BD14F58004A0
:1003C0003CBF01F5801130BD01F0004545F0FE4114
:1003D00041F470014FF0000030BD7FEA645C1ABF49
:1003E000194610467FEA655C1CBF0B46024650EA80
:1003F000013406BF52EA033591EA030F41F40021AC
:1004000030BD00BF90F0000F04BF0021704730B531
:100410004FF4806404F132044FF000054FF0000106
:1004200050E700BF90F0000F04BF0021704730B5C7
:100430004FF4806404F1320410F0004548BF40429C
:100440004FF000013EE700BF42004FEAE2014FEAF1
:1004500031014FEA02701FBF12F07F4393F07F4FCC
:1004600081F06051704732F07F4208BF704793F0CF
:100470007F4F04BF41F40021704730B54FF46074E2
:1004800001F0004521F000411CE700BF50EA0102E5
:1004900008BF704730B54FF000050AE050EA01028E
:1004A00008BF704730B511F0004502D5404261EBFE
:1004B00041014FF4806404F132045FEA915C3FF43F
:1004C000D8AE4FF003025FEADC0C18BF03325FEADC
:1004D000DC0C18BF033202EBDC02C2F1200300FA8D
:1004E00003FC20FA02F001FA03FE40EA0E0021FAB2
:1004F00002F11444BDE600BF70B54FF0FF0C4CF4A0
:10050000E06C1CEA11541DBF1CEA135594EA0C0F51
:1005100095EA0C0F00F0DEF82C4481EA030621EA8C
:100520004C5123EA4C5350EA013518BF52EA0335C7
:1005300041F4801143F4801338D0A0FB02CE4FF079
:100540000005E1FB02E506F00042E0FB03E54FF0A9
:100550000006E1FB03569CF0000F18BF4EF0010EA1
:10056000A4F1FF04B6F5007F64F5407404D25FEA9D
:100570004E0E6D4146EB060642EAC62141EA555150
:100580004FEAC52040EA5E504FEACE2EB4F1FD0C92
:1005900088BFBCF5E06F1ED8BEF1004F08BF5FEA10
:1005A000500E50F1000041EB045170BD06F00046C2
:1005B00046EA010140EA020081EA0301B4EB5C046F
:1005C000C2BFD4EB0C0541EA045170BD41F4801167
:1005D0004FF0000E013C00F3AB8014F1360FDEBF8C
:1005E000002001F0004170BDC4F10004203C35DA68
:1005F0000C341BDC04F11404C4F1200500FA05F3EB
:1006000020FA04F001FA05F240EA020001F000428B
:1006100021F0004110EBD37021FA04F642EB060101
:100620005EEA430E08BF20EAD37070BDC4F10C042B
:10063000C4F1200500FA04F320FA05F001FA04F2EF
:1006400040EA020001F0004110EBD37041F10001DB
:100650005EEA430E08BF20EAD37070BDC4F12005E6
:1006600000FA05F24EEA020E20FA04F301FA05F24E
:1006700043EA020321FA04F001F0004121FA04F2F6
:1006800020EA020000EBD3705EEA430E08BF20EAC6
:10069000D37070BD94F0000F0FD101F00046400000
:1006A00041EB010111F4801F08BF013CF7D041EA82
:1006B000060195F0000F18BF704703F00046520086
:1006C00043EB030313F4801F08BF013DF7D043EA57
:1006D0000603704794EA0C0F0CEA135518BF95EA0D
:1006E0000C0F0CD050EA410618BF52EA4306D1D194
:1006F00081EA030101F000414FF0000070BD50EAB3
:10070000410606BF1046194652EA430619D094EA3C
:100710000C0F02D150EA013613D195EA0C0F05D126
:1007200052EA03361CBF104619460AD181EA03017A
:1007300001F0004141F0FE4141F470014FF0000032
:1007400070BD41F0FE4141F4780170BD70B54FF0CD
:10075000FF0C4CF4E06C1CEA11541DBF1CEA13554D
:1007600094EA0C0F95EA0C0F00F0A7F8A4EB05042F
:1007700081EA030E52EA03354FEA013100F0888026
:100780004FEA03334FF0805545EA131343EA1263EF
:100790004FEA022245EA111545EA10654FEA0026A4
:1007A0000EF000419D4208BF964244F1FD0404F55D
:1007B000407402D25B084FEA3202B61A65EB0305B9
:1007C0005B084FEA32024FF480104FF4002CB6EB76
:1007D000020E75EB030E22BFB61A754640EA0C00F6
:1007E0005B084FEA3202B6EB020E75EB030E22BF36
:1007F000B61A754640EA5C005B084FEA3202B6EB77
:10080000020E75EB030E22BFB61A754640EA9C0035
:100810005B084FEA3202B6EB020E75EB030E22BF05
:10082000B61A754640EADC0055EA060E18D04FEAC3
:10083000051545EA16754FEA06164FEAC30343EA63
:1008400052734FEAC2025FEA1C1CC0D111F4801F30
:100850000BD141EA00014FF000004FF0004CB6E729
:1008600011F4801F04BF01430020B4F1FD0C88BFC8
:10087000BCF5E06F3FF6AFAEB5EB030C04BFB6EBD3
:10088000020C5FEA500C50F1000041EB045170BDC6
:100890000EF0004E4EEA113114EB5C04C2BFD4EBF3
:1008A0000C0541EA045170BD41F480114FF0000E77
:1008B000013C90E645EA060E8DE60CEA135594EAF3
:1008C0000C0F08BF95EA0C0F3FF43BAF94EA0C0FF6
:1008D0000AD150EA01347FF434AF95EA0C0F7FF46B
:1008E00025AF104619462CE795EA0C0F06D152EABF
:1008F00003353FF4FDAE1046194622E750EA4106A3
:1009000018BF52EA43067FF4C5AE50EA41047FF4B3
:100910000DAF52EA43057FF4EBAE12E74FF0FF3C18
:1009200006E000BF4FF0010C02E000BF4FF0010CE9
:100930004DF804CD4FEA410C7FEA6C5C4FEA430C62
:1009400018BF7FEA6C5C1BD001B050EA410C0CBFB1
:1009500052EA430C91EA030F02BF90EA020F002013
:10096000704710F1000F91EA030F58BF994208BF7A
:1009700090422CBFD8176FEAE37040F00100704737
:100980004FEA410C7FEA6C5C02D150EA013C07D18E
:100990004FEA430C7FEA6C5CD6D152EA033CD3D0D9
:1009A0005DF8040B704700BF8446104662468C46D3
:1009B0001946634600E000BF01B5FFF7B7FF002806
:1009C00048BF10F1000F01BD4DF808EDFFF7F4FF2F
:1009D0000CBF012000205DF808FB00BF4DF808EDBA
:1009E000FFF7EAFF34BF012000205DF808FB00BFDD
:1009F0004DF808EDFFF7E0FF94BF012000205DF8FF
:100A000008FB00BF4DF808EDFFF7CEFF94BF0120B3
:100A100000205DF808FB00BF4DF808EDFFF7C4FFAC
:100A200034BF012000205DF808FB00BF4FEA410CF5
:100A30007FEA6C5C02D150EA013C0AD14FEA430CD8
:100A40007FEA6C5C02D152EA033C02D14FF0000015
:100A500070474FF0010070474A0011D212F50012A2
:100A600011D20DD56FF47873B3EB62520ED44FEA06
:100A7000C12343F0004343EA505323FA02F0704786
:100A80004FF00000704750EA013002D14FF0FF30C4
:100A900070474FF00000704780B584B000AFF86039
:100AA0000B467A607B81FB687A89DA80FB687A681A
:100AB0001A60FB6800221A72F86800F03FF9FB68C0
:100AC00000221A71FB6818461037BD4680BD80B4FD
:100AD00083B000AF78607B6818460C37BD465DF880
:100AE000047B704780B584B000AF7860786800F010
:100AF0000CF80346FB73FB7B002B02D0786800F0F8
:100B0000B9F900BF1037BD4680BD80B584B000AFD5
:100B10007860786800F024F90346FB73FB7B002BB8
:100B20000CD07B68DB7A042B08D17B685B69002BD7
:100B300004D07B6801221A71012303E07B68002244
:100B40001A71002318461037BD4680BD80B586B0A7
:100B500000AFF860B9607A603B60FB685A69BB68B7
:100B60009A4211D9BA683B6813445A1EFB685B6904
:100B70009A4209D23B68002B06D0FB681B7983F0B0
:100B80000103DBB2002B01D0002331E0F86800F054
:100B9000C3F80323FB74FB68186807F113014FF0D7
:100BA000FF33012202F090FD07F108031946F868AF
:100BB00000F06BF900237B617A693B689A420DD2A1
:100BC000FB6818687A687B69D1184FF0FF330122FF
:100BD00002F0D4FF7B6901337B61EDE7F86800F038
:100BE000ADF8BA683B6813445A1EFB689A6101234A
:100BF00018461837BD4680BD80B586B000AFF86096
:100C0000B9607A603B60FB685A69BB689A4211D947
:100C1000BA683B6813445A1EFB685B699A4209D262
:100C20003B68002B06D0FB681B7983F00103DBB225
:100C3000002B01D0002353E0F86800F06DF8062384
:100C4000FB74FB68186807F113014FF0FF330122B2
:100C500002F03AFDF86800F071F8F86800F05CF80E
:100C60000223FB74FB68186807F113014FF0FF3390
:100C7000012202F029FD07F108031946F86800F087
:100C800004F900237B617A693B689A420DD2FB68C4
:100C900018687A687B69D1184FF0FF33012202F09F
:100CA00013FD7B6901337B61EDE7F86800F046F8DE
:100CB000F86800F031F80423FB74FB68186807F14A
:100CC00013014FF0FF33012202F0FEFCF86800F040
:100CD00035F8BA683B6813445A1EFB689A610123D1
:100CE00018461837BD4680BD80B483B000AF786029
:100CF0007B685B6918460C37BD465DF8047B70471E
:100D000080B483B000AF78607B689B6918460C376D
:100D1000BD465DF8047B704780B582B000AF786057
:100D20007B68DB8800221946034801F0B5F900BF53
:100D30000837BD4680BD00BF0004004880B582B0C2
:100D400000AF78607B68DB8801221946034801F018
:100D5000A3F900BF0837BD4680BD00BF00040048AE
:100D600090B585B000AF786000233B7300237B73A0
:100D70000023BB737868FFF7CFFF9F23FB727B686C
:100D8000186807F10B014FF0FF33012202F09CFCC1
:100D90007B6818687B6803F10B014FF0FF33012279
:100DA00002F0ECFE7B68186807F10C014FF0FF338E
:100DB000012202F0E3FE7B68186807F10C03591C5E
:100DC0004FF0FF33012202F0D9FE7B68186807F16B
:100DD0000C03991C4FF0FF33012202F0CFFE78681C
:100DE000FFF7ACFF7B7B03F01F03DBB27B737A7BE7
:100DF0007B689A73BB7B9BB21B029AB2FB7B9BB254
:100E000013449AB27B689A817B68DB7A042B26D1E3
:100E10007B689B7B033B052B19D87B689B7B03334B
:100E20001946022000F06BF854EC103B184621469E
:100E3000FFF712FE03469AB27B681A827B681B8A10
:100E4000DB011A467B685A6100BF01230EE07B6814
:100E500000221A827B6800225A61002306E07B6828
:100E600000221A827B6800225A6100231846143738
:100E7000BD4690BD80B483B000AF786001231846B2
:100E80000C37BD465DF8047B704780B584B000AF79
:100E9000786039607B689B7B062B0DD93B681B68AB
:100EA0001B0CDBB2FB737B68186807F10F014FF076
:100EB000FF33012202F008FC3B681B681B0ADBB20F
:100EC000FB737B68186807F10F014FF0FF330122B5
:100ED00002F0FAFB3B681B68DBB2FB737B681868A7
:100EE00007F10F014FF0FF33012202F0EDFB3B68E9
:100EF0001A687B689A6100BF1037BD4680BDB0B5E7
:100F000082B000AF786039607868FFF78BFA0446EA
:100F10000D463868FFF786FA02460B4643EC112B64
:100F200045EC104B05F0E4FFB0EE407AF0EE607A4D
:100F3000B0EE470AF0EE670A0837BD46B0BD0000C4
:100F4000114B1B780BB90120704710B5044601F016
:100F50001FFA0D4B1A784FF47A73B3FBF2F3B0FB20
:100F6000F3F000F02BFE68B90F2C01D901200AE044
:100F7000002221464FF0FF3000F0CCFD024B5C60B8
:100F8000002000E0012010BD0400002010B5094A37
:100F9000136843F480731360032000F0A9FD002060
:100FA000FFF7CEFF10B10124204610BD044605F026
:100FB000CFFCF9E700400058034B1B78034A116847
:100FC0000B441360704700BF04000020A4070020FA
:100FD000014B1868704700BFA4070020014B5868F8
:100FE000704700BF0400002038B50446FFF7F0FF4B
:100FF0000546B4F1FF3F02D0044B1B781C44FFF7B9
:10100000E7FF401BA042FAD338BD00BF0400002018
:1010100030B583B000230193002800F0DE80044641
:10102000436D03B323689A6812F0005F05D09A6895
:1010300022F0204222F03F029A602268936813F067
:10104000805F1DD1936823F0104323F03F0343F0EA
:1010500080539360624B1B689B09624AA2FB032387
:101060009B09019309E005F08BFC0023A36584F83C
:101070005030D7E7019B013B0193019B002BF9D135
:1010800023689A6812F0805F78D1626D42F0100296
:101090006265A26D42F00102A26501209A6812F019
:1010A000040F6DD00121626D12F0100F40F08E80A0
:1010B000002940F08B80626D22F4817242F00202BE
:1010C00062659B6813F0010F0BD1474B9B6813F0CF
:1010D000010F06D1636845498A6822F47C121343E4
:1010E0008B60627E636B43EA4233E2681343A2681B
:1010F000134394F8202043EA0243012A42D0A26A13
:1011000022B102F47072E16A0A4313432168CD6888
:10111000374A2A401343CB6023689A6812F0040FC1
:1011200035D001219A6812F0080F32D00122B1B9EE
:10113000AAB9217E94F83020520042EA8131DA685F
:1011400022F4804222F002020A43DA6094F8383036
:10115000012B20D02268136923F001031361236956
:10116000012B2AD02268136B23F00F031363636DE6
:1011700023F0030343F0010363652CE000208DE7B7
:10118000002190E7626A013A43EA4243B7E700214F
:10119000C8E70022CBE721680B6923F4FF6323F043
:1011A0000403E26B256C2A43656C2A43A56C2A4331
:1011B000134343F001030B61D1E721680B6B23F06C
:1011C0000F03E269013A13430B63D0E7636D43F009
:1011D00010036365012003B030BD0120FBE700BFB1
:1011E0001C000020632D3E05000004500003045045
:1011F00007C0F0FF704708B5806AFFF7FBFF08BD26
:101200007047704770B5044603681D685E6815F046
:10121000020F10D016F0020F0DD0436D13F0100F17
:1012200003D1436D43F400634365204600F05EFC48
:10123000236802221A6015F0040F02D016F0040F82
:1012400005D115F0080F3AD016F0080F37D0636DAE
:1012500013F0100F03D1636D43F4007363652368CB
:10126000DA6812F4406F24D1DA6812F4005F20D1FA
:101270001A6812F0080F1CD09A6812F0040F10D1EF
:101280005A6822F00C025A60636D23F48073636520
:10129000636D13F4805F0CD1636D43F001036365EC
:1012A00007E0636D43F010036365A36D43F0010332
:1012B000A365204605F080F823680C221A6015F01B
:1012C000200F02D016F0200F05D115F0400F4DD0A1
:1012D00016F0400F4AD0636D13F0100F03D1636D09
:1012E00043F4005363652368DA6C12F0C00F2BD10E
:1012F0000121DA6812F4406F28D10120DA6879B34D
:1013000012F0007F03D058B312F4005F28D11A689E
:1013100012F0400F24D0DA6812F4001F20D19A682E
:1013200012F0080F14D15A6822F060025A60636DFF
:1013300023F480536365636D13F4807F10D1636D74
:1013400043F0010363650BE00021D2E70020D5E7FD
:10135000636D43F010036365A36D43F00103A36560
:10136000204600F0BFFB236860221A6015F0800F52
:1013700002D016F0800F2DD115F4807F02D016F424
:10138000807F32D115F4007F02D016F4007F38D16F
:1013900015F0100F17D016F0100F14D0636B23B197
:1013A0002368DB6813F0030F0AD0636D43F4806396
:1013B0006365A36D43F00203A3652046FFF721FF99
:1013C000236810221A6015F4806F02D016F4806F23
:1013D00023D170BD636D43F4803363652046FFF70E
:1013E0000FFF236880221A60C6E7636D43F4003361
:1013F0006365204600F078FB23684FF480721A6022
:10140000C0E7636D43F480236365204600F06DFB05
:1014100023684FF400721A60BAE7636D43F48043A7
:101420006365A36D43F00803A36523684FF48062EE
:101430001A60204600F057FBCBE708B5836A5A6D67
:1014400012F0500F31D15A6D42F400725A651A6889
:10145000116811F0080F14D0D16811F4406F20D139
:10146000D26812F4005F1CD15A6D22F480725A6562
:101470005A6D12F4805F14D15A6D42F001025A6520
:101480000FE0D26812F0020F0BD15A6D22F4807275
:101490005A655A6D12F4805F03D15A6D42F0010211
:1014A0005A65184604F088FF08BD5A6D12F0100FF7
:1014B00003D1DB6C5B6B9847F6E71846FFF7A1FE9C
:1014C000F2E708B5806A436D43F040034365836DDE
:1014D00043F004038365FFF794FE08BDF0B482B0C7
:1014E0000022019290F85020012A00F02782034642
:1014F000012280F850200668B06810F0040F0AD06E
:101500005A6D42F020025A650120002283F85020D3
:1015100002B0F0BC70474D680C6830362A0A920061
:1015200002F00C02B05805F01F051F27AF4020EA5B
:101530000700C4F38464AC402043B0501A6890683C
:1015400010F0040F6BD00120946814F0080F68D0DD
:10155000012450BB4CBB0E688D681432700E8000A5
:1015600000F004001458C6F304560727B74024EAD5
:101570000704B5402C4314504C691868C268C2F384
:10158000C102520004FA02F20D69042D4BD00E681C
:10159000603050F82570AE4C3C4006F0F8463243BF
:1015A000144344F0004440F825401868826812F063
:1015B000010F40F0BD810A68CD68D0F8B040C2F399
:1015C000120624EA060405F01806A24DF5402A404A
:1015D000C2F312022243C0F8B020C8689E4A90426B
:1015E00000F088800A689D490A4200F0A3819C4966
:1015F000896801F0E0749B48806810F0010F40F0AA
:1016000044819948824200F046819848824200F025
:1016100068819748824200F07881002075E70020B9
:1016200092E7002495E7026E046EC4F384640A68AE
:10163000C2F312057DBBC2F38462944233D01C68AE
:10164000626E606EC0F384600A68C2F312057DBBEF
:10165000C2F38462904233D01C68A26EA06EC0F3C5
:1016600084600A68C2F312057DBBC2F384629042B3
:1016700033D01C68E26EE06EC0F384600A68C2F387
:1016800012057DBBC2F3846290428ED1E26E22F0DD
:101690000042E26689E792FAA2F212B1B2FA82F24D
:1016A000CBE72022C9E7026E22F000420266C6E7BD
:1016B00092FAA2F212B1B2FA82F2CBE72022C9E783
:1016C000626E22F000426266C6E792FAA2F212B19E
:1016D000B2FA82F2CBE72022C9E7A26E22F00042E2
:1016E000A266C6E792FAA2F212B1B2FA82F2CBE790
:1016F0002022C9E71D680A68C2F31206002E35D100
:10170000900E013000F01F0009288CBF002001203E
:10171000002862D0002E38D1940E0134A40604F0C3
:10172000F844002E3DD1900E013000F01F0701203B
:10173000B8400443002E42D1920E013202F01F0243
:1017400002EB4202120522438C681435500E8000D1
:1017500000F004002E58C2F304520727974026EAEF
:10176000070604FA02F232432A503BE792FAA2F04B
:1017700048B1B0FA80F0013000F01F0009288CBF9A
:1017800000200120C4E72020F5E792FAA2F414B16A
:10179000B4FA84F400E020240134A40604F0F844F0
:1017A000BFE792FAA2F010B1B0FA80F000E020207A
:1017B000013000F01F00012707FA00F0B9E792FAA4
:1017C000A2F212B1B2FA82F200E02022013202F05B
:1017D0001F0202EB42021205B5E7CEB9940E0134A6
:1017E000A40604F0F844FEB9900E013000F01F0783
:1017F0000120B84004432EBB900E013000F01F00C2
:1018000000EB40021E3A120542F0007222439BE7B1
:1018100092FAA2F414B1B4FA84F400E02024013462
:10182000A40604F0F844DEE792FAA2F010B1B0FA90
:1018300080F000E02020013000F01F00012707FAAF
:1018400000F0D7E792FAA2F2A2B1B2FA82F012E067
:1018500000F0FF03FFFF070000007F40000008804A
:101860000003045000000450000052C7000084CB65
:10187000010000802020013000F01F0000EB40023A
:101880001E3A120542F00072C0E75A6D42F0200283
:101890005A65012039E611F4000F7FF4B6AE1968DD
:1018A000274A914201D000202FE644F40002254847
:1018B000816821F0E0710A438260234A126892092C
:1018C0002249A1FB0212920902EB4202910001910E
:1018D00002E0019A013A0192019A002AF9D100200E
:1018E00013E611F0807F7FF494AE1968144A914298
:1018F00001D0002009E644F080721248816821F08E
:10190000E0710A4382600020FFE511F4800F13D1DB
:1019100019680B4A914201D00020F6E544F4800298
:101920000848816821F0E0710A4382600020ECE5FC
:101930000020EAE50020E8E50020E6E50220E7E5F2
:1019400000000450000304501C000020632D3E05DD
:1019500030B583B00023019303689A6812F0010F39
:1019600052D199682A4A114216D19A6822F000424F
:1019700022F03F0242F001029A60264B9B6813F46A
:10198000000F19D0244B1B689B09244AA2FB032398
:101990009B09013301930CE0436D43F01003436551
:1019A000836D43F00103836501202EE0019B013B21
:1019B0000193019B002BF9D10446FFF709FB054673
:1019C00004E0FFF705FB401B022811D823681A68C2
:1019D00012F0010F16D19A6812F0010FF1D19A6836
:1019E00022F0004222F03F0242F001029A60E8E752
:1019F000636D43F010036365A36D43F00103A365BA
:101A0000012002E0002000E0002003B030BD00BF54
:101A10003F000080000304501C000020632D3E05A1
:101A200070B50468A46814F0040F50D190F85030D9
:101A3000012B4FD015460E460446012380F8503046
:101A4000FFF786FF034600283DD1636D23F47063E2
:101A500023F0010343F480736365636D13F4805FC7
:101A60002ED0A36D23F00603A365E36C1A4ADA6255
:101A7000E36C1A4A1A63E36C194A5A6323681C22FE
:101A80001A60002384F850302268536843F0100332
:101A900053602268D36843F00103D36021682B466A
:101AA00032464031E06C00F08BF9034621688A68C9
:101AB00022F0004222F03F0242F004028A6007E076
:101AC0000023A365D1E7002284F8502000E0022320
:101AD000184670BD0223FBE73B140008F71100080D
:101AE000C314000870477047704770477047000084
:101AF000074AD36823F4E0631B041B0C000200F4C4
:101B0000E060184340F0BF6040F40030D0607047A0
:101B100000ED00E030B4174BDB68C3F30223C3F1E0
:101B20000704042C28BF04241D1D062D18D9033BCF
:101B30004FF0FF3505FA04F421EA0401994005FA53
:101B400003F322EA0303194300280BDB0901C9B29E
:101B500000F1604000F5614080F8001330BC704730
:101B60000023E5E700F00F000901C9B2024B195448
:101B7000F4E700BF00ED00E014ED00E0002807DB13
:101B800000F01F02400901239340024A42F820302E
:101B9000704700BF00E100E000280CDB00F01F02EE
:101BA0004009012393402030034A42F82030BFF31C
:101BB0004F8FBFF36F8F704700E100E00138B0F145
:101BC000807F0AD2064B5860064AF02182F8231023
:101BD0000020986007221A6070470120704700BFFC
:101BE00010E000E000ED00E0002808DB00F01F023C
:101BF0004009012393404030014A42F820307047A9
:101C000000E100E0002808DB00F01F02400901238A
:101C100093406030014A42F82030704700E100E014
:101C200070B4C46C056D6560446D14B1846DC56D90
:101C30006560446C04F01C05066C0124AC407460C3
:101C4000046863608368102B05D00368996003689B
:101C5000DA6070BC704703689A600368D960F8E77F
:101C60000368104A934213D9426C22F003010E4AD2
:101C70000A448264DBB2083B0C4AA2FB03230C4AF1
:101C8000C264C3F30413012202FA03F3036570472D
:101C9000426C22F0030202F1804202F502328264B9
:101CA000E8E700BF070402401C080240CDCCCCCCC2
:101CB00080080240436803F03F03074A1A44920039
:101CC0004265064A8265013B03F00303012202FAE2
:101CD00003F3C365704700BF3F8200104009024014
:101CE00000285ED010B5044602682F4B9A4240D8B7
:101CF0002E4B13442E4AA2FB03231B099B00436473
:101D00002C4B0364022384F8253021680A6822F4EE
:101D1000FF4222F07002A368E06803432069034396
:101D200060690343A0690343E0690343206A0343F6
:101D300013430B602046FFF793FFA368B3F5804F72
:101D400022D06368A26C03F03F031360E36C226D42
:101D50005A606368013B032B19D900236365A365AF
:101D6000E3650020E063012384F8253084F8240033
:101D700010BD114B13440E4AA2FB03231B099B0009
:101D800043640E4B0364BDE700236360D9E720463C
:101D9000FFF790FF636D00221A60A36DE26D5A6039
:101DA000DFE70120704700BF07040240F8FFFDBFD6
:101DB000CDCCCCCC00000240F8FBFDBF00040240BB
:101DC00038B590F82440012C42D0012480F82440FA
:101DD00090F82540E4B2012C04D0002380F8243090
:101DE000022038BD0446022084F825000020E0636C
:101DF0002568286820F0010028602046FFF710FFC2
:101E0000236BD3B12268136843F00E031360A36CF5
:101E10001A6812F4803F03D01A6842F480721A6084
:101E2000636D1BB11A6842F480721A6022681368ED
:101E300043F0010313600020D3E72268136823F006
:101E4000040313602268136843F00A031360DEE79B
:101E50000220C6E738B5036C196804682568436C2E
:101E600003F01C0304229A400A4215D015F0040F17
:101E700012D0236813F0200F03D1236823F004034A
:101E80002360436C03F01C02016C042393404B60FD
:101E9000036B03B1984738BD02229A400A421CD016
:101EA00015F0020F19D0236813F0200F06D1236814
:101EB00023F00A032360012380F82530436C03F0EC
:101EC0001C02016C022393404B60002380F82430F5
:101ED000C36A002BDFD09847DDE7082202FA03F33C
:101EE0000B42D8D015F0080FD5D0236823F00E038D
:101EF0002360436C03F01C03016C012202FA03F31C
:101F00004B60C26380F82520002380F82430436BA7
:101F1000002BC0D09847BEE7F0B500233AE0042478
:101F200000E00024B4403C430235584E46F82540BA
:101F3000574CD4F88050D44304EA05064F6817F490
:101F4000803F01D042EA0506514DC5F88060D5F8C2
:101F5000845004EA05064F6817F4003F01D042EAB6
:101F600005064B4DC5F884602D6804EA05064F68E8
:101F700017F4801F01D042EA0506454D2E606D68BA
:101F80002C404E6816F4001F01D042EA0504404A76
:101F9000546001330A6832FA03F475D001249C407E
:101FA0002240F6D04D686E1E012E03D9112D01D0AE
:101FB000122D12D186685F000325BD4026EA050672
:101FC000CD68BD4035438560466826EA04064D6805
:101FD000C5F300149C4034434460C5685F0003248B
:101FE000BC40E44325408E68BE402E43C6604D6829
:101FF000022D01D0122D13D1DE08083650F826E04C
:1020000003F007054FEA850C0F2505FA0CF52EEABB
:10201000050E0D6905FA0CF545EA0E0540F8265047
:1020200005682C404D6805F00305BD402C43046055
:102030004C6814F0805FACD09D08AE1C134C54F873
:10204000267003F00304A6000F24B44027EA040717
:10205000B0F1904F3FF465AF0E4CA0420ED004F5A6
:102060008064A0420CD004F58064A0420AD004F53C
:102070008064A0423FF453AF072453E7012451E7A3
:1020800002244FE703244DE7F0BD00BF00000140EC
:1020900000080058000400480AB981627047816155
:1020A0007047704708B5054BD8681A6822EA0002E5
:1020B0001A605860FFF7F5FF08BD00BF0015005813
:1020C00000285CD0F0B587B0044690F829323BB1C7
:1020D000032384F82932206802F077F8002316E001
:1020E00080F8283204F010FDF2E704EB43120121DE
:1020F00082F8291082F82830D386002182F82B102C
:102100009163D1639A1C5201A1500133DBB2606824
:102110008342EAD3002312E004EB4311002281F84A
:10212000292181F8283181F82B21C1F83821C1F803
:102130003C2103F10A01490162500133DBB29842AC
:10214000EAD8254655F8107B6E460FCD0FC62B6892
:102150003360231D0ECB384602F041F8002384F88B
:102160002430012384F82932E369012B02D00020B6
:1021700007B0F0BD204600F004F80020F8E7012089
:102180007047024603680121C0F86812002082F8F7
:102190006002B3F854200A43A3F85420B3F8542043
:1021A00042F00202A3F8542070470000024A13686C
:1021B00043F480731360704700040058024B1868A2
:1021C00000F4C060704700BF00040058F0B58DB047
:1021D00006460F462A4C94E80F000CAD05E90F00A7
:1021E00005AB04F1100207CA83E8070001AD1C34F7
:1021F00094E80F0085E80F00B7F5007F11D00023A9
:10220000022B22D80CAA02EB830252F81C2CB242F9
:1022100015D20133F4E70CAA02EB830353F82C4CDC
:1022200014E00023032B08D80CAA02EB830252F817
:10223000102CB242EFD20133F4E7002406E00CAADE
:1022400002EB830353F82C4C00E000240D4A136882
:1022500023F0070323431360FEF7BAFE0546094B3C
:102260001B6803F00703A34206D0FEF7B1FE401B34
:102270000228F4D9032000E000200DB0F0BD00BF1B
:10228000308000080040005810B5B02819D8C0F3BD
:1022900003100D4B53F820404FF0B043D3F80831F2
:1022A00003F00F03094A52F82330B4FBF3F4FFF7AD
:1022B00085FF074BA3FB04340146A00CFFF786FF04
:1022C00010BD014BDC6AE7E7E881000828820008BE
:1022D00083DE1B434FF0B0439B6813F00C030CD11B
:1022E0004FF0B0431B6803F0F003B02B00D9B023CC
:1022F0001B09244A52F823007047042B3DD0082BB9
:1023000010D04FF0B043DB6803F00303022B30D052
:10231000032B0FD14FF0B0431B6813F4801F2AD159
:10232000194B13E04FF0B0431B6813F4801F26D005
:10233000164870474FF0B0431B6803F0F003B02B12
:1023400000D9B0231B090F4A52F823304FF0B04296
:10235000D068C0F3062000FB03F0D368C3F3021378
:102360000133B0FBF3F0D3685B0F0133B0FBF3F044
:102370007047064BEAE7054BE8E704487047024818
:10238000704700BFE88100080048E8010024F4001D
:1023900008B5FFF79FFF4FF0B0439B68C3F30313EB
:1023A000024A52F82330B0FBF3F008BD288200083F
:1023B000002800F07D8338B50446036813F0200F31
:1023C0005BD04FF0B0429368D26802F0030213F082
:1023D0000C031ED00C2B1AD0E369002B00F0A18057
:1023E0004FF0B042136843F001031360FEF7F0FDB5
:1023F00005464FF0B0431B6813F0020F40F0818098
:10240000FEF7E6FD401B0228F3D903205DE3012A15
:10241000E2D14FF0B0431B6813F0020F03D0E36921
:10242000002B00F04783606A4FF0B0431B6803F055
:10243000F003B02B00D9B02398424DD9FFF724FF09
:10244000002840F03983636A4FF0B042116821F0F0
:10245000F0010B431360216A536823F47F4343EA7E
:1024600001235360FFF794FFC44B1860C44B1868F6
:10247000FEF766FD002840F02183236813F0010F6A
:1024800071D04FF0B042936803F00C03D26802F0B1
:102490000302082B5DD00C2B59D06368B3F5803F45
:1024A00000F08A804FF0B042136823F48033136049
:1024B0006368002B00F08780FEF78AFD05464FF029
:1024C000B0431B6813F4003F4DD1FEF781FD401B64
:1024D0006428F4D90320F8E24FF0B042136823F0E7
:1024E000F00318431060216A536823F47F4343EAE2
:1024F00001235360606AFFF7C7FE0028B2D00120B5
:10250000E3E2636A4FF0B042116821F0F0010B433F
:102510001360216A536823F47F4343EA0123536025
:10252000ABE74FF0B042136823F001031360FEF7EE
:102530004FFD05464FF0B0431B6813F0020F9CD0CF
:10254000FEF746FD401B0228F4D90320BDE2032A12
:10255000A3D14FF0B0431B6813F4003F03D063686E
:10256000002B00F0AD82236813F0020F50D04FF023
:10257000B042936803F00C03D26802F00302042B0C
:1025800033D00C2B2FD0E368002B77D04FF0B04224
:10259000136843F480731360FEF71AFD05464FF08D
:1025A000B0431B6813F4806F5ED1FEF711FD401B32
:1025B0000228F4D9032088E24FF0B042136843F4B4
:1025C0008033136074E7FEF703FD05464FF0B04318
:1025D0001B6813F4003FC6D0FEF7FAFC401B6428CA
:1025E000F4D9032071E2022ACDD14FF0B0431B6829
:1025F00013F4806F03D0E368002B00F0638221693D
:102600004FF0B042536823F0FE4343EA0163536046
:10261000236813F0180F00F0E7806269002A00F0C9
:10262000B18013F0100F7AD04FF0B043D3F894304C
:1026300013F0020F38D14FF0B042D2F8943043F08B
:102640000103C2F89430FEF7C3FC05464FF0B043D7
:10265000D3F8943013F0020F26D1FEF7B9FC401BDB
:102660000228F3D9032030E221694FF0B0425368C9
:1026700023F0FE4343EA01635360C9E74FF0B042E1
:10268000136823F480731360FEF7A2FC05464FF035
:10269000B0431B6813F4806FBAD0FEF799FC401B5F
:1026A0000228F4D9032010E24FF0B042D2F894305F
:1026B00043F00403C2F89430FEF78AFC05464FF05D
:1026C000B043D3F8943013F0080F06D1FEF780FC26
:1026D000401B0328F3D90320F7E1A1694FF0B04272
:1026E000D2F8943023F4706343EA0123C2F89430A3
:1026F000D2F8943023F00103C2F89430FEF768FC5E
:1027000005464FF0B043D3F8943013F0020F6BD06E
:10271000FEF75EFC401B0228F3D90320D5E14FF001
:10272000B042D2F8943043F00103C2F89430FEF77F
:102730004FFC05464FF0B043D3F8943013F0020F2E
:1027400006D1FEF745FC401B0228F3D90320BCE16B
:102750004FF0B042D2F8943023F00403C2F8943022
:102760004FF0B043D3F8943013F0080F3CD0FEF78D
:102770002FFC401B0328F3D90320A6E11C000020F6
:10278000080000204FF0B042D2F8943023F0040348
:10279000C2F89430FEF71CFC05464FF0B043D3F866
:1027A000943013F0080F06D0FEF712FC401B0328EC
:1027B000F3D9032089E14FF0B042D2F8943023F0EE
:1027C0000103C2F89430FEF703FC05464FF0B04316
:1027D000D3F8943013F0020F06D0FEF7F9FB401B3C
:1027E0000228F3D9032070E1236813F0040F68D0A6
:1027F000BA4B1B6813F4807F27D0A368012B35D018
:10280000052B3CD04FF0B043D3F8902022F00102CA
:10281000C3F89020D3F8902022F00402C3F890204F
:10282000A368DBB3FEF7D4FB05464FF0B043D3F803
:10283000903013F0020F44D1FEF7CAFB401B41F267
:1028400088339842F1D903203FE1FFF7AFFCFEF750
:10285000BFFB0546A14B1B6813F4807FCDD1FEF76B
:10286000B7FB401B0228F5D903202EE14FF0B04200
:10287000D2F8903043F00103C2F89030D0E74FF027
:10288000B043D3F8902042F00402C3F89020D3F86C
:10289000902042F00102C3F89020C1E7FEF798FBB8
:1028A00005464FF0B043D3F8903013F0020F08D034
:1028B000FEF78EFB401B41F288339842F1D903208A
:1028C00003E1236813F0400F33D0A36AC3B14FF084
:1028D000B042D2F8983043F00103C2F89830FEF7C6
:1028E00077FB05464FF0B043D3F8983013F0020F52
:1028F0001FD1FEF76DFB401B0228F3D90320E4E053
:102900004FF0B042D2F8983023F00103C2F898306B
:10291000FEF75EFB05464FF0B043D3F8983013F056
:10292000020F06D0FEF754FB401B0228F3D9032008
:10293000CBE0E36A002B00F0C7804FF0B0418A681B
:1029400002F00C02C968022B23D00C2A00F0C480CC
:102950004FF0B0431A6822F080721A60DA6822F0F1
:102960000302DA60DA6822F0885222F48032DA60F8
:10297000FEF72EFB04464FF0B0431B6813F0007FB8
:1029800000F09480FEF724FB001B0228F3D90320FB
:102990009BE001F00303206B83420AD00C2A00F075
:1029A00095804FF0B0431B6813F0806F2ED001204C
:1029B0008BE001F07003606B8342EFD1C1F306231B
:1029C000A06B8342EAD101F47813E06B8342E5D136
:1029D00001F06063206C8342E0D101F06041636CE0
:1029E0009942DBD14FF0B0431B6813F0007F6FD1E9
:1029F0004FF0B0431A6842F080721A60DA6842F011
:102A00008052DA60FEF7E4FA044647E04FF0B04245
:102A1000136823F080731360FEF7DAFA05464FF06F
:102A2000B0431B6813F0007F06D0FEF7D1FA401BBD
:102A30000228F4D9032048E04FF0B042D368284977
:102A40001940236B606B0343A06B43EA0023E06BE8
:102A50000343206C0343606C03430B43D360136850
:102A600043F080731360D36843F08053D360FEF764
:102A7000AFFA04464FF0B0431B6813F0007F06D155
:102A8000FEF7A6FA001B0228F4D903201DE000205F
:102A90001BE0FEF79DFA001B02281BD84FF0B04345
:102AA0001B6813F0007FF4D000200EE000200CE043
:102AB00001207047012008E0012006E0012004E029
:102AC000012002E0012000E0002038BD0120FCE7E9
:102AD0000020FAE70320F8E70120F6E70004005899
:102AE0008C80C111002800F0298170B504460D4684
:102AF000934B1B6803F007038B422DD3236813F01D
:102B0000020F3FD1236813F0200F53D1236813F035
:102B1000400F6AD1236813F0040F40F083802368CC
:102B200013F0080F40F09780236813F0010F00F0B6
:102B3000E0806368022B00F0A880032B00F0C980BE
:102B4000002B40F0CE804FF0B042126812F0020F1E
:102B500040F0A1800120F0E0794A136823F00703D8
:102B60000B431360FEF734FA0646754B1B6803F0FF
:102B70000703AB42C2D0FEF72BFA801B0228F4D920
:102B80000320DAE0A3684FF0B0418A6822F0F00237
:102B900013438B60FEF71CFA06464FF0B0439B6868
:102BA00013F4803FAED1FEF713FA801B0228F4D94C
:102BB0000320C2E063694FF0B041D1F8082122F050
:102BC000F0021343C1F80831FEF702FA06464FF04F
:102BD000B043D3F8083113F4003F97D1FEF7F8F96A
:102BE000801B0228F3D90320A7E0A1694FF0B0426F
:102BF000D2F8083123F00F0343EA1113C2F8083169
:102C0000FEF7E6F906464FF0B043D3F8083113F467
:102C1000803F7FF47FAFFEF7DBF9801B0228F2D9FB
:102C200003208AE0E3684FF0B0418A6822F4E06252
:102C300013438B60FEF7CCF906464FF0B0439B6818
:102C400013F4003F7FF46BAFFEF7C2F9801B02283C
:102C5000F3D9032071E021694FF0B042936823F467
:102C6000605343EAC1039360FEF7B2F906464FF0A2
:102C7000B0439B6813F4802F7FF456AFFEF7A8F99A
:102C8000801B0228F3D9032057E04FF0B0421268AE
:102C900012F4003F1BD04FF0B0418A6822F00302CB
:102CA00013438B60FEF794F906464FF0B0439B68E0
:102CB00003F00C036268B3EB820F1AD0FEF788F9B9
:102CC000801B41F288339842EFD9032035E0012080
:102CD00033E04FF0B042126812F0007FDBD10120E8
:102CE0002BE04FF0B042126812F4806FD3D1012074
:102CF00023E0134B1B6803F00703AB4215D9104ABE
:102D0000136823F007032B431360FEF761F90446B1
:102D10000B4B1B6803F00703AB4206D0FEF758F9D4
:102D2000001B0228F4D9032007E0FFF731FB054B15
:102D30001860FEF753F9FEF703F970BD01207047E4
:102D4000004000581C00002070B505464FF0B0420E
:102D5000136823F080631360FEF73AF904464FF0DE
:102D6000B0431B6813F0006F06D0FEF731F9001B6B
:102D70000228F4D9032400E000240CB1204670BDE1
:102D80004FF0B0431A6922F4FE42296842EA012258
:102D90001A611A6922F4781269680A431A611A687A
:102DA00042F080621A60FEF713F906464FF0B04316
:102DB0001B6813F0006F05D1FEF70AF9801B02288B
:102DC000F4D90324002CD9D14FF0B04213692969FA
:102DD0000B431361D2E770B505464FF0B04213685C
:102DE00023F080631360FEF7F3F804464FF0B0431E
:102DF0001B6813F0006F06D0FEF7EAF8001B0228EC
:102E0000F4D9032400E000240CB1204670BD4FF03B
:102E1000B0431A6922F4FE42296842EA01221A618B
:102E20001A6922F06062A9680A431A611A6842F0BE
:102E300080621A60FEF7CCF806464FF0B0431B687C
:102E400013F0006F05D1FEF7C3F8801B0228F4D9F8
:102E50000324002CD9D14FF0B042136929690B43E8
:102E60001361D2E770B505464FF0B042136823F006
:102E700080631360FEF7ACF804464FF0B0431B6864
:102E800013F0006F06D0FEF7A3F8001B0228F4D958
:102E9000032400E000240CB1204670BD4FF0B04385
:102EA0001A6922F4FE42296842EA01221A611A696B
:102EB00022F06042E9680A431A611A6842F08062AF
:102EC0001A60FEF785F806464FF0B0431B6813F012
:102ED000006F05D1FEF77CF8801B0228F4D903248B
:102EE000002CD9D14FF0B042136929690B4313610B
:102EF000D2E770B50446036813F0400F2AD0036B85
:102F0000B3F5800F11D007D863B90430FFF71CFF69
:102F1000064688B105461FE0B3F5000F18D0B3F59B
:102F2000400F15D001252E4616E04FF0B042D36871
:102F300043F48033D3600026236B4FF0B041D1F8C7
:102F4000882022F440021343C1F88830002503E0B2
:102F50000026F1E700252E46236813F4006F0AD0FF
:102F60004FF0B043D3F8905005F44075236CAB425A
:102F700040F0D5803546236813F0010F09D0A369CE
:102F80004FF0B041D1F8882022F003021343C1F87A
:102F90008830236813F0020F09D0E3694FF0B04185
:102FA000D1F8882022F440621343C1F888302368A6
:102FB00013F0100F0CD0A06A4FF0B041D1F8883058
:102FC000020C120423EA020343EA0043C1F88830EA
:102FD000236813F0200F0CD0E06A4FF0B041D1F815
:102FE0008830020C120423EA020343EA0043C1F8CA
:102FF0008830236813F0040F0FD0236A4FF0B040DD
:10300000D0F88820190901F47F2122EA01021B016E
:1030100003F47F231343C0F88830236813F0080FAC
:103020000FD0636A4FF0B040D0F88820190901F43E
:103030007F2122EA01021B0103F47F231343C0F81E
:103040008830236813F4807F13D0636B4FF0B04156
:10305000D1F8882022F040621343C1F88830636BB6
:10306000B3F1006F00F09C80636BB3F1806F00F0F0
:103070009C80236813F4007F17D0A36BB3F1804FBB
:1030800005D0B3F1004F02D0002B40F096804FF0F6
:10309000B041D1F8882022F040421343C1F8883073
:1030A000A36BB3F1C05F00F09A80236813F4806FC4
:1030B00013D0E36B4FF0B041D1F8882022F040529A
:1030C0001343C1F88830E36BB3F1005F00F08E80EA
:1030D000E36BB3F1805F00F08E80236813F4805FB0
:1030E00009D0636C4FF0B041D1F8942022F44042F3
:1030F0001343C1F89430236813F4005F0DD0E26CE1
:103100004FF0B043596A21F030010A435A62A26C71
:10311000596A21F003010A435A62284670BDFFF73D
:1031200045F85DB9236C4FF0B041D1F8902022F4FE
:1031300040721343C1F8903035461CE74FF0B0435E
:10314000D3F89020D3F8901041F48031C3F8901058
:10315000D3F8901021F48031C3F8901022F440721B
:10316000216C0A43C3F89020D3F8903013F0010F7C
:1031700001D13546FFE6FDF72BFF05464FF0B04382
:10318000D3F8903013F0020F08D1FDF721FF401B58
:1031900041F288339842F1D90325ECE63546EAE658
:1031A000CB6843F08073CB605EE7201DFFF713FE12
:1031B00000283FF45EAF05465BE723F080534FF0F5
:1031C000B042D2F8881021F04041C2F88810D2F8FD
:1031D000881021F040610B43C2F8883060E74FF05F
:1031E000B042D36843F08073D3605EE7CB6843F4AA
:1031F0008033CB606CE7201DFFF734FE00283FF4DE
:103200006CAF054669E738B504460268D36823F019
:10321000A003D360FDF7DCFE05462368DB6813F0EE
:10322000200F07D1FDF7D4FE401BB0F57A7FF4D90B
:10323000032000E0002038BD38B50368DA6812F0DA
:10324000400F01D0002038BD04464FF0FF32DA6055
:10325000FDF7BEFE05462368DB6813F0400F07D17B
:10326000FDF7B6FE401BB0F57A7FF4D90320EAE7FC
:103270000020E8E738B5002867D0044690F82130F0
:10328000002B44D0022384F821302368CA225A62DA
:10329000236853225A622046FFF7CEFF05460028D6
:1032A0003AD12268936823F4E00323F0400393604B
:1032B00021688A68636820690343A0690343134354
:1032C0008B602368E2681A6122681369A16843EA87
:1032D000014313612268D36823F08003D36022681E
:1032E000D36C23F00303D3642168CB6CE26960697B
:1032F00002431343CB6423689B6813F0200F14D060
:103300002368FF225A62012384F821300BE080F801
:10331000203003F08DFBB5E72368FF225A620423B7
:1033200084F821300125284638BD2046FFF76BFF81
:103330000028E5D02368FF225A62042384F8213054
:10334000002384F820300125EDE70125EBE700009C
:103350002DE9F04383B004460F4616461D46FDF79F
:1033600037FE0A9B181A00EB0508FDF731FE81466F
:103370002A4B1B68C3F3CB3308FB03F30193236889
:103380009B6837EA03030CBF01230023B34240D0FC
:10339000B5F1FF3FF3D0FDF71BFEA0EB0900404560
:1033A0000AD2B8F1000F07D0019B0BB94FF000080B
:1033B000019B013B0193E2E72268536823F0E0039D
:1033C00053606368B3F5827F0BD0A36AB3F5005FE7
:1033D00014D0012384F85D30002384F85C3003208E
:1033E00018E0A368B3F5004F02D0B3F5806FECD1BD
:1033F0002268136823F040031360E6E7226813682D
:1034000023F4005313602268136843F400531360DD
:10341000DFE7002003B0BDE8F08300BF1C00002000
:103420002DE9F04383B006460C4615461F46FDF7CE
:10343000CFFD0A9B181A00EB0708FDF7C9FD81466E
:103440002D4B1B6803EB8303C3EBC3031B0D08FB6E
:1034500003F3019302E0B7F1FF3F0BD132689368A9
:103460002340AB4244D0B4F5C06FF4D1002DF2D16B
:10347000137BF0E7FDF7ACFDA0EB090040450AD255
:10348000B8F1000F07D0019B0BB94FF00008019B6A
:10349000013B0193E2E73268536823F0E003536095
:1034A0007368B3F5827F0BD0B36AB3F5005F14D0B5
:1034B000012386F85D30002386F85C30032018E095
:1034C000B368B3F5004F02D0B3F5806FECD132682A
:1034D000136823F040031360E6E73268136823F4AF
:1034E000005313603268136843F400531360DFE73E
:1034F000002003B0BDE8F0831C00002070B582B04E
:1035000004460D46164600920B4600224FF4C05169
:10351000FFF786FFB8B900962B460022802120468F
:10352000FFF716FFB8B900962B4600224FF4C06192
:103530002046FFF775FF034650B1236E43F020038A
:103540002366032304E0236E43F020032366032352
:10355000184602B070BD236E43F020032366032398
:10356000F6E770B582B004460D4616464368B3F5DB
:10357000827F0FD000962B46002280212046FFF745
:10358000E7FE034698B96268B2F5827F15D0184607
:1035900002B070BD8368B3F5004F02D0B3F5806F01
:1035A000E8D12268136823F040031360E2E7236E3A
:1035B00043F0200323660323E9E7A268B2F5004F36
:1035C00002D0B2F5806FE2D100962B4600224FF474
:1035D000C0612046FFF724FF03460028D7D0236EA2
:1035E00043F0200323660323D1E700286AD010B5F7
:1035F0000446436A33B94368B3F5827F05D000239C
:10360000C36102E00023036143610023A36294F8D5
:103610005D30002B4DD0022384F85D3022681368A2
:1036200023F040031360E368B3F5E06F47D900224D
:10363000B3F5706F04D0B3F5E06F01D00023A3623F
:10364000636803F48273A16801F404410B432169A8
:1036500001F002010B43616901F001010B43A16913
:1036600001F400710B43E16901F038010B43216A59
:1036700001F080010B43A16A01F4005120680B4363
:103680000360638B03F00403616A01F010010B43D4
:10369000616B01F008010B43E16801F470610B43B9
:1036A000216813434B6000202066012384F85D30BD
:1036B00010BD84F85C30204603F0D6F9ABE74FF438
:1036C0008052B5E7012070472DE9F04182B090F8B3
:1036D0005C40012C00F0E9801E46154688460446F1
:1036E000012380F85C30FDF773FC074694F85D20F9
:1036F000D2B2012A09D00220012384F85D300023D0
:1037000084F85C3002B0BDE8F081B8F1000F00F041
:10371000BE80002D00F0BD80032384F85D300023BF
:103720002366C4F83880A587E5872364A4F844306D
:10373000A4F846302365E364A368B3F5004F1CD0BA
:1037400023681A6812F0400F03D11A6842F0400251
:103750001A60E368B3F5E06F38D963680BB1012DE7
:1037600020D1A26B23681288DA60A36B0233A363B3
:10377000E38F013B9BB2E38714E02268136823F0D8
:10378000400313602268136843F480431360D7E753
:10379000FDF71EFCC01BB04202D3B6F1FF3F7AD149
:1037A000002E7AD0E38F9BB2002B5BD023689A68FF
:1037B00012F0020FECD0A26B1288DA60A36B023316
:1037C000A363E38F013B9BB2E387EBE763680BB135
:1037D000012D30D1E38F9BB2012B0BD9A26B236853
:1037E0001288DA60A36B0233A363E38F023B9BB2C0
:1037F000E38720E0A26B236812781A73A36B01336E
:10380000A363E38F013B9BB2E38714E0A36B1B78B8
:103810001373A36B0133A363E38F013B9BB2E38775
:1038200009E0FDF7D5FBC01BB04202D3B6F1FF3F64
:1038300035D1002E35D0E38F9BB29BB122689368BF
:1038400013F0020FEDD0E38F9BB2012BDED9A36BF7
:103850001B88D360A36B0233A363E38F023B9BB24D
:10386000E387E8E73A4631462046FFF747FE08B1CE
:1038700020232366A36833B901932368DA68019291
:103880009B680193019B236E6BB9002034E70120F4
:1038900032E7012030E703202EE703202CE7032046
:1038A0002AE7032028E7012026E702202AE72DE95E
:1038B000F843DDF8208090F85C40012C00F05C813A
:1038C0001D4617460E460446012380F85C30FDF77E
:1038D0007FFB814694F85D00C0B26368012814D074
:1038E000B3F5827F09D00223012284F85D200022F3
:1038F00084F85C201846BDE8F883A368002B40F0EC
:103900002D81042801D00223EEE7002E00F028814B
:10391000002F00F02781002D00F0268194F85D3003
:10392000DBB2042B02D0052384F85D30002323662C
:103930002764A4F84650A4F84450A663E587A587F9
:10394000E3642365E368B3F5E06F01D8012D22D964
:103950002268536823F48053536023681A6812F076
:10396000400F03D11A6842F040021A60E368B3F5D1
:10397000E06F56D963680BB1012D0AD1A26B2368A1
:103980001288DA60A36B0233A363E38F013B9BB21F
:10399000E387012525E02268536843F48053536090
:1039A000DBE723689A6812F0010F10D0B4F84620C4
:1039B00092B262B1DA68236C1A80236C02332364FA
:1039C000B4F84630013B9BB2A4F846300125FDF720
:1039D000FFFAA0EB0900404503D3B8F1FF3F40F0E8
:1039E000C580E38F9BB22BB9B4F846309BB2002B55
:1039F00000F0A78023689A6812F0020FD1D0E28FFE
:103A000092B2002ACDD0002DCBD0A26B1288DA6002
:103A1000A36B0233A363E38F013B9BB2E3870025D3
:103A2000BFE763680BB1012D0ED1E38F9BB2012B71
:103A30000CD9A26B23681288DA60A36B0233A363EC
:103A4000E38F023B9BB2E387012547E0A26B23682B
:103A500012781A73A36B0133A363E38F013B9BB20C
:103A6000E387F1E7E28F92B2012A0BD9A26B1288A9
:103A7000DA60A36B0233A363E38F023B9BB2E3875D
:103A800000253CE0A26B12781A73A36B0133A36389
:103A9000E38F013B9BB2E387002530E02268536847
:103AA00043F48053536001250CE0226C1B7B1370A0
:103AB000236C01332364B4F84630013B9BB2A4F875
:103AC00046300125FDF784FAA0EB0900404502D3FA
:103AD000B8F1FF3F4CD1B8F1000F4BD0E38F9BB250
:103AE0001BB9B4F846309BB25BB323689A6812F0F6
:103AF000020F04D0E28F92B20AB1002DB2D1236836
:103B00009A6812F0010FDDD0B4F8462092B2002A74
:103B1000D8D0B4F8462092B2012AC6D9DA68236C0C
:103B20001A80236C02332364B4F84630023B9BB204
:103B3000A4F84630B4F846309BB2012BAED901252B
:103B4000C0E74A4641462046FFF7D8FC0346002816
:103B50003FF4CAAE202323660123C5E60223C3E651
:103B60000123C1E60123BFE60123BDE60323BBE633
:103B70000323B9E60323B7E60223BBE62DE9F041B0
:103B800082B004460F4690461D464368B3F5827FD7
:103B900019D094F85C30012B00F0BD80012384F82B
:103BA0005C30FDF715FA064694F85D30DBB2012B68
:103BB00015D00220012384F85D30002384F85C30A6
:103BC00002B0BDE8F0818368002BE2D1042380F8C5
:103BD0005D30009513460A46FFF769FEF0E7002FB7
:103BE00000F08B80B8F1000F00F08980042384F886
:103BF0005D30002323662764A4F84480A4F846803F
:103C0000A363A387E387E3642365E368B3F5E06F09
:103C100016D92268536823F480535360A368B3F520
:103C2000004F13D023681A6812F0400F03D11A68AE
:103C300042F040021A60E368B3F5E06F1BD93AE046
:103C40002268536843F480535360E7E7226813689F
:103C500023F0400313602268136823F48043136049
:103C6000E0E7FDF7B5F9801BA84202D3B5F1FF3FAD
:103C700047D1002D47D0B4F846309BB2002B30D04E
:103C800023689A6812F0010FEBD0226C1B7B137033
:103C9000236C01332364B4F84630013B9BB2A4F893
:103CA0004630E8E7FDF794F9801BA84202D3B5F14E
:103CB000FF3F2AD15DB3B4F846309BB28BB1236885
:103CC0009A6812F0010FEDD0DA68236C1A80236C29
:103CD00002332364B4F84630013B9BB2A4F846306B
:103CE000E9E7324629462046FFF73BFC08B120238E
:103CF0002366236E6BB900205CE701205AE70120A0
:103D000058E7032056E7032054E7032052E7032037
:103D100050E701204EE7022052E710B4036A046A1C
:103D200024F001040462846924F0F00444EA0212DD
:103D300023F00A030B43826103625DF8044B704772
:103D400010B4036A23F0100303628469036A24F445
:103D5000704444EA023223F0A00343EA0113826173
:103D600003625DF8044B7047836823F4401323F02B
:103D70007003194341F007018160704790F83D30AE
:103D8000DBB2012B01D001207047022380F83D30C7
:103D90000268D36843F00103D36003680E4A93427C
:103DA00008D0B3F1804F05D01A6842F001021A60C2
:103DB000002070479968094A0A40062A08D0B2F5DF
:103DC000803F07D01A6842F001021A600020704755
:103DD0000020704700207047002C014007000100C0
:103DE0007047704770477047704710B504460368C6
:103DF0001A6912F0020F11D0DA6812F0020F0DD01A
:103E00006FF002021A610123037703689B6913F0C4
:103E1000030F79D0FFF7E6FF0023237723681A69A1
:103E200012F0040F12D0DA6812F0040F0ED06FF007
:103E300004021A610223237723689B6913F4407FED
:103E400068D02046FFF7CEFF0023237723681A6946
:103E500012F0080F12D0DA6812F0080F0ED06FF0CF
:103E600008021A61042323772368DB6913F0030F28
:103E700057D02046FFF7B6FF0023237723681A693F
:103E800012F0100F12D0DA6812F0100F0ED06FF08F
:103E900010021A61082323772368DB6913F4407F3B
:103EA00046D02046FFF79EFF0023237723681A6938
:103EB00012F0010F03D0DA6812F0010F3FD123682E
:103EC0001A6912F0800F03D0DA6812F0800F3DD12A
:103ED00023681A6912F4807F03D0DA6812F0800F29
:103EE0003BD123681A6912F0400F03D0DA6812F050
:103EF000400F39D123681A6912F0200F03D0DA6815
:103F000012F0200F37D110BDFFF76BFF2046FFF7EF
:103F10006AFF81E72046FFF764FF2046FFF763FF53
:103F200092E72046FFF75DFF2046FFF75CFFA3E71F
:103F30002046FFF756FF2046FFF755FFB4E76FF026
:103F400001021A612046FFF74BFFB8E76FF08002CD
:103F50001A61204600F02DF9BAE76FF480721A61F9
:103F6000204600F027F9BCE76FF040021A612046B6
:103F7000FFF73AFFBEE76FF020021A61204600F01B
:103F800017F9C0E703681A4A904202D0B0F1804F97
:103F900003D123F070034A681343154A90420AD0B4
:103FA000B0F1804F07D002F5C052904203D002F525
:103FB0008062904203D123F44073CA68134323F014
:103FC00080034A69134303608B68C3620B68836292
:103FD000074B984207D003F5C053984203D003F52E
:103FE0008063984201D10B690363012343617047E9
:103FF000002C014058B310B5044690F83D300BB387
:10400000022384F83D30211D2068FFF7BBFF012308
:1040100084F8483084F83E3084F83F3084F84030EB
:1040200084F8413084F8423084F8433084F84430D6
:1040300084F8453084F8463084F8473084F83D30C1
:10404000002010BD80F83C3002F040FDD8E7012090
:10405000704710B4846824F47F4442EA03230B437E
:10406000234383605DF8044B7047000090F83C30B8
:10407000012B64D010B50446012380F83C300223A4
:1040800080F83D30026890682E4B034093600B68C7
:10409000402B4AD013D9602B3DD01ED9702B28D08D
:1040A000B3F5005F30D1CB684A6889682068FFF7B4
:1040B000D0FF2268936843F48043936024E0102B80
:1040C00006D004D9202B03D0302B01D01CE0DBB963
:1040D00019462068FFF748FE16E0502B14D1CA6835
:1040E00049682068FFF719FE50212068FFF73CFE61
:1040F0000AE0CB684A6889682068FFF7AAFF22684F
:10410000936843F077039360012384F83D300020E7
:1041100084F83C0010BDCA6849682068FFF710FEAB
:1041200060212068FFF720FEEEE7CA684968206832
:10413000FFF7F3FD40212068FFF716FEE4E70220B9
:10414000704700BF8800CEFF90F83C30012B2BD089
:1041500030B4012380F83C30022380F83D300268FF
:1041600053689568114CA24219D023F070030C6873
:104170002343536003680D4A934202D0B3F1804F4A
:1041800004D125F080058A6815439D60012380F8DD
:104190003D30002380F83C30184630BC704723F493
:1041A00070034C682343E0E702207047002C014075
:1041B000704770477047B0F8403043F43F4343F0D6
:1041C0008003A0F8403000207047B0F8403023F45E
:1041D0007E535B045B0CA0F840300020704784B035
:1041E00038B505AC84E80E000123A0F84030002467
:1041F000A0F84040A0F84440A0F85040FFF7DBFF93
:104200002046BDE8384004B0704710B588B000249F
:104210008DF807401822214602A800F06CFB3F23CE
:10422000ADF808308123ADF80A300DF1070306938D
:1042300001230793214602A800F0AEFDA04203DB54
:104240009DF8070008B010BDFF20FBE72DE9F04FF7
:10425000C9B09DF84C619DF8545106F1080A02ACB2
:1042600004EB0A0B7719093704EB07080DF107096E
:104270004FF0000C8DF807C08DF80800ADF809105C
:10428000ADF80B208DF80D309DF848318DF80E30CB
:104290008DF80F603246549904A800F028FB04F80A
:1042A0000A5009362A4656990BF1010000F01FFB0F
:1042B0003544BDF85C31E353BDF86031A8F80230F5
:1042C00004351822002142A800F015FB3F23ADF869
:1042D00008318323ADF80A3144944595CDF81891FF
:1042E00001234793002142A800F056FD002804DB7B
:1042F0009DF8070049B0BDE8F08FFF20FAE770B5E0
:10430000C8B00DF1070500248DF8074002AE8DF806
:1043100008001822214642A800F0EDFA3F23ADF82C
:1043200008318523ADF80A3144960123459346951B
:104330004793214642A800F02FFDA04203DB9DF8E1
:10434000070048B070BDFF20FBE770B5C8B00DF1A5
:10435000070600258DF8075002AC8DF808008DF88F
:1043600009108DF80A208DF80B309DF830318DF84A
:104370000C309DF834318DF80D309DF838318DF8C2
:104380000E304F9BCDF80F309DF840318DF8133033
:104390001822294642A800F0AEFA3F23ADF80831B2
:1043A0008623ADF80A3144940C23459346960123A5
:1043B0004793294642A800F0EFFCA84203DB9DF892
:1043C000070048B070BDFF20FBE72DE9F041C8B001
:1043D00080460F4615461E4607220021684600F01B
:1043E0008AFA02AC8DF808808DF809708DF80A50B1
:1043F0001822002142A800F07EFA3F23ADF80831D0
:104400008A23ADF80A31449403234593CDF818D19B
:1044100007234793002142A800F0BEFC002810DBD0
:104420009DF8000050B9BDF801303380BDF803207D
:104430004E9B1A80BDF805204F9B1A8048B0BDE8FE
:10444000F081FF20FAE7F0B5C9B004460DF1070688
:1044500000258DF8075002AF8DF8080002460DF1D7
:10446000090000F044FA01341822294642A800F05D
:1044700042FA3F23ADF808318E23ADF80A31449754
:104480004594469601234793294642A800F084FCB0
:10449000A84203DB9DF8070049B0F0BDFF20FBE711
:1044A00010B588B000248DF807401822214602A8D4
:1044B00000F021FA3F23ADF808309223ADF80A301E
:1044C0000DF10703069301230793214602A800F08C
:1044D00063FCA04203DB9DF8070008B010BDFF207D
:1044E000FBE710B588B000248DF80740182221465C
:1044F00002A800F000FA3F23ADF8083040F20113A3
:10450000ADF80A300DF10703069301230793214606
:1045100002A800F041FCA04203DB9DF8070008B0B0
:1045200010BDFF20FBE72DE9F041C8B004468846E6
:1045300017461E46012815D0022811D0012502ABCE
:104540001D440322002101A800F0D5F98DF8084090
:10455000012C09D0022C33D0472048B0BDE8F081AF
:104560001125ECE70325EAE70224224641460DF136
:10457000090000F0BCF92F706E700334182200217E
:1045800042A800F0B8F93F23ADF808314FF4817329
:10459000ADF80A3102AB4493459401AB4693032333
:1045A0004793002142A800F0F7FB00280ADB9DF8A2
:1045B00004000028D1D1BDF805204E9B1A80CCE71D
:1045C0001024D2E7FF20C8E72DE9F041C8B0064625
:1045D0000D4690461F46012917D0022913D0032407
:1045E00002AB1C440322002101A800F084F9ADF8BD
:1045F00008608DF80A50012D09D0022D41D04720C6
:1046000048B0BDE8F0811324EAE70524E8E7022575
:104610002A4641460DF10B0000F069F927809DF80C
:104620003831A3709DF83C31E3709DF8403123711F
:104630009DF8443163719DF84831A3710A35182201
:10464000002142A800F057F93F23ADF808314FF49C
:104650008273ADF80A3102AB4493459501AB4693A2
:1046600003234793002142A800F096FB00280ADBB1
:104670009DF804000028C3D1BDF80520539B1A8083
:10468000BEE71025C4E7FF20BAE7F0B5C9B01C4665
:104690000DF1070700268DF8076002ADADF80800A0
:1046A000ADF80A108DF80C208DF80D301A464E9991
:1046B0000DF10E0000F01BF906341822314642A815
:1046C00000F019F93F23ADF808314FF48373ADF8CA
:1046D0000A3144954594469701234793314642A8B1
:1046E00000F05AFBB04203DB9DF8070049B0F0BD73
:1046F000FF20FBE7F0B5C9B00C4611460DF10707E6
:1047000000258DF8075002AE8DF808008DF809409D
:1047100022460DF10A0000F0EAF802341822294678
:1047200042A800F0E8F83F23ADF808310C23ADF8BB
:104730000A3144964594469701234793294642A857
:1047400000F02AFBA84203DB9DF8070049B0F0BD4A
:10475000FF20FBE770B5C8B00DF1070600248DF807
:10476000074002AD8DF808008DF809101822214687
:1047700042A800F0C0F83F23ADF808310F23ADF890
:104780000A314495022345934696012347932146D7
:1047900042A800F001FBA04203DB9DF8070048B0EF
:1047A00070BDFF20FBE770B5C8B00DF10705002410
:1047B0008DF8074002AEADF808001822214642A845
:1047C00000F099F83F23ADF808311823ADF80A310D
:1047D000449602234593469501234793214642A8D8
:1047E00000F0DAFAA04203DB9DF8070048B070BD84
:1047F000FF20FBE710B588B000248DF80740182291
:10480000214602A800F077F80323ADF80830ADF890
:104810000A300DF10703069301230793214602A8EE
:1048200000F0BAFAA04203DB9DF8070008B010BD03
:10483000FF20FBE7F0B5C9B007460E461546052236
:104840000021684600F057F802ACADF80870182255
:10485000002142A800F04FF80823ADF808313023BA
:10486000ADF80A31449402234593CDF818D10523BD
:104870004793002142A800F08FFA00280ADB9DF838
:10488000000028B99DF8033033709DF804302B7078
:1048900049B0F0BDFF20FBE770B5C8B00DF10706C9
:1048A00000258DF8075002AC8DF808008DF809102E
:1048B0008DF80A201822294642A800F01CF8082387
:1048C000ADF808313123ADF80A3144940323459300
:1048D000469601234793294642A800F05DFAA84274
:1048E00003DB9DF8070048B070BDFF20FBE708B56B
:1048F00003F07EFB08BD08B503F085FB08BD000092
:104900004378FF2B38D1B0F8032040F601439A4298
:1049100034D110B584B0B0F80720194B9B8802330E
:104920009A4207D0164B5B8801339A4216D000207A
:1049300004B010BD437B13F0010F07D004A800237F
:1049400000F8103D01F0C2FF0120F1E7012404A8A6
:1049500000F8104D01F0BAFF2046E9E703238DF877
:104960000030B0F80B308DF808300D3001906846FB
:1049700001F0ACFF0020DBE700207047002070470B
:10498000900000202DE9F04F8BB0624800F01AF93A
:104990008F238DF81830E5238DF81930B3238DF867
:1049A0001A30D5238DF81B302E238DF81C307F2331
:1049B0008DF81D304A238DF81E3098238DF81F3056
:1049C0002A238DF8203048238DF821307A238DF862
:1049D0002230CC238DF8233040238DF82430FE275D
:1049E0008DF8257000248DF826408DF827404A4B1D
:1049F00000930823012206A90220FFF794FD4FF03F
:104A0000190B8DF818B0ED268DF819604FF0820A59
:104A10008DF81AA06FF051038DF81B308DF81C60D3
:104A20004FF021028DF81D204FF04C018DF81E1023
:104A30006FF062008DF81F004FF041088DF8208064
:104A40004FF045058DF821504FF0220C8DF822C013
:104A50004FF08E098DF823908DF824808DF8257005
:104A60008DF826408DF827402B4B33F8020B059329
:104A7000012504954FF00A0ECDF80CE00295019443
:104A80000623009312230DF1180E72460221FFF740
:104A90009BFD8DF818B08DF819608DF81AA06FF095
:104AA00051038DF81B308DF81C604FF021028DF8FA
:104AB0001D204FF04C018DF81E106FF062008DF834
:104AC0001F008DF820804FF045038DF821304FF006
:104AD000220C8DF822C08DF8239042238DF82430CB
:104AE0008DF825708DF826408DF827400A4B33F855
:104AF000040B059304950A23039302950194102354
:104B00000093042306AA0221FFF75EFD0BB0BDE867
:104B1000F08F00BF01490008900000204FF642636B
:104B200098420DD100B583B013460A46054908885E
:104B3000898800920022FFF7A8FD03B05DF804FB0E
:104B400042207047900000207047704770477047C0
:104B5000704770477047704770477047704770479D
:104B600070477047704708B5FFF7EEFFFFF7EDFF9E
:104B7000FFF7ECFFFFF7EBFFFFF7EAFFFFF7E9FFB7
:104B8000FFF7E8FFFFF7E7FFFFF7E6FFFFF7E5FFB7
:104B9000FFF7E4FFFFF7F6FEFFF7E1FFFFF7E1FFA6
:104BA000FFF7DEFFFFF7DEFF08BD000008B5044B8E
:104BB00000221A7783F82020FFF7D5FF08BD00BF39
:104BC00098000020034A137F42F823000133137733
:104BD000704700BF9800002038B505464378FF2B8A
:104BE0001BD1B0F8033003F47F43B3F5406F14D109
:104BF000002422460C4B1B7FA34209D90A4B53F8D1
:104C0000243028469847024610B90134E4B2F1E74F
:104C10001AB1022A05D0012002E0284600F02EFD3C
:104C200038BD0020FCE700BF9800002000B585B02B
:104C30006B4600F10C0221214FF6664000F0BAF9F4
:104C40009DF80E0005B05DF804FB00B585B06B461D
:104C500000F10C020F214FF6684000F0ABF99DF80F
:104C60000E0005B05DF804FB08B520B9054B1B68C4
:104C700033B1984704E0034B1B680BB10120984700
:104C800008BD00BF2002002070B584B006460B4C62
:104C9000201D00F013FB0A4D284640F8046B00F07D
:104CA0000DFB01232B73E3682BB1029604A8054A80
:104CB00040F8102D984704B070BD00BF20020020BE
:104CC000BC0000203D4E000810B51446084B1B6880
:104CD000A3F80900D9720A46214603F10C0003F03B
:104CE00087F9044BDB6900210846984710BD00BFD7
:104CF000BC0000202002002010B50C464A68054B7D
:104D00001A60986203F10C0000F0B4F82068FFF715
:104D1000BBFF10BD2002002000B585B01B4800F08D
:104D2000D0FA10B91A4B1B7B4BB9184800F0C9FADE
:104D300010B9174B1B7B23BB05B05DF804FB03A91F
:104D4000124800F0EEFA134B9B6A8BB1039A029261
:104D500004A8012200F80C2D98479DF804200C4B64
:104D60001A730B4B1B7B3BB1039800F05FFADCE737
:104D7000074B01221A73F4E70399044800F0ADFAD7
:104D8000D3E7024800F0CAFCD6E700BFC00000200D
:104D9000BC00002020020020F0B583B007460020B0
:104DA000FFF762FFB7F90250C5F309053B8845EAF2
:104DB0008325ADB2BA68397B2846FFF785FF002608
:104DC000002E33D148F2E80000F0B3FC1A4800F09E
:104DD00078FA0028F4D101A9174800F0A2FA019C42
:104DE000637A0F2B07D0A389AB4211D0E37A002B53
:104DF000ECD00126EAE7B4F80D30AB4204D0237BB7
:104E0000002BE3D00126E1E73B69E27A1A70F6E76E
:104E1000A27A033AD2B27B699A42A8BF1A467A6153
:104E200004F10E01386903F0E3F8DFE70120FFF732
:104E30001BFF002003B0F0BD2402002010B5437A10
:104E40000E3BDBB2012B08D9084C0146204600F08E
:104E500050FA204600F062FC10BD0146044800F004
:104E600048FA002000F060FCF6E700BFC000002018
:104E700024020020024B0360024B0361704700BF15
:104E8000B5500008F550000808B538B9084B1B6844
:104E900003B19847074B00221A7008BD054B012249
:104EA0001A70034B1B68002BF7D010469847F4E7A5
:104EB00050020020CC00002030B585B005460B4CD8
:104EC000606004F1080000F0F9F90120FFF7DCFF51
:104ED00001232374064B5B6833B10395054A0192A5
:104EE000054A029201A8984705B030BDCC000020C9
:104EF000500200200D500008FD4E000810B5044C73
:104F00000146204600F0F5F9204600F08EFC10BD69
:104F1000D400002010B50C464A68054B1A60186290
:104F2000181D00F079F82068FFF7C6FF10BD00BF1C
:104F30005002002000B585B01B4800F0C2F910B93E
:104F40001A4B1B7C4BB9184800F0BBF910B9174B32
:104F50001B7C23BB05B05DF804FB03A9124800F0DD
:104F6000E0F9134B1B6A8BB1039A029204A8012249
:104F700000F80C2D98479DF804200C4B1A740B4B2D
:104F80001B7C3BB1039800F051F9DCE7074B012291
:104F90001A74F4E70399044800F09FF9D3E7024834
:104FA00000F043FCD6E700BFD4000020CC00002076
:104FB000500200202DE9F04180460D4617461E465E
:104FC0000020FFF761FF0F4C6068A0F80980C572F0
:104FD0002A4639460C3003F00BF80B4B5B69002175
:104FE0000846984748F2E80000F02AFC61688A7891
:104FF000033206F1080002F0FBFF0120FFF744FF37
:10500000BDE8F081CC0000205002002008B500204F
:1050100000F011FC08BD0000024B0360024B03616D
:10502000704700BF515100088551000800B583B09A
:1050300009E001A9084800F074F9084B1B690199BF
:10504000186900F056F9044800F03BF90028F0D048
:1050500003B05DF804FB00BF7802002000000320CD
:1050600008B500F005FC08BD08B5104A104B1360E8
:1050700003F12001516003F13001916003F13C0123
:10508000116203F14401516203F14C01D16003F15B
:105090005401116103F17001516103F174019161D7
:1050A0008033D36100F00CFC08BD00BF000003207A
:1050B0002800032038B504460A4D284600F0FEF8C3
:1050C000094B5B68A2681A60E268DA60074A5A60B6
:1050D0009D6000F017FC2268054B9A606268DA60F8
:1050E000002038BDB400032000000320E0010320AD
:1050F0007802002008B5054B5A6812680121117228
:105100005B6800F007FC002008BD00BF0000032022
:1051100000B583B007E001A9074800F002F9074B8A
:105120009B6801989847044800F0CBF80028F2D01B
:1051300003B05DF804FB00BFB40003207802002038
:1051400008B5024BDB68984708BD00BF7802002015
:1051500038B50446084D284600F0B0F8074BDB6828
:10516000A2681A605D6000F0F3FB2268044B1A61CC
:1051700062685A61002038BDBC0003200000032093
:105180007802002008B5054BDA6812681021117208
:10519000DB6800F0E5FB002008BD00BF0000032035
:1051A00008B5044BDA68DA68034B1B691068984746
:1051B00008BD00BF000003207802002000B583B0C6
:1051C00007E001A9074800F0ACF8074B5B690198BC
:1051D0009847044800F075F80028F2D003B05DF855
:1051E00004FB00BFBC0003207802002038B5044651
:1051F0000B4D284600F062F80A4800F05FF80A4BB1
:105200001B69A2689A60E268DA601D6122681A6010
:1052100062685A6022695A6162699A6138BD00BF4A
:10522000C4000320780200200000032008B50146D6
:10523000034800F05EF8034800F0ECFB08BD00BF37
:10524000780200202D50000810B5054C204600F0D3
:1052500035F8044B5B691C6000F0F4FB10BD00BF27
:10526000CC000320000003207047000000B583B08D
:1052700006E001A9064800F054F80198FFF7F4FF92
:10528000034800F01EF80028F3D003B05DF804FBDB
:10529000CC000320074BDA79824204D006498B42C6
:1052A00001D0083BF7E7824201D11846704700233E
:1052B000FBE700BFF873FF1F0070FF1F0060406036
:1052C0007047EFF3108372B60268824203D0002069
:1052D00083F3108870470120FAE7EFF3108372B66A
:1052E00002680A60486001600A68516083F31088B0
:1052F0007047EFF3108372B6086042684A604160FD
:105300004A68116083F310887047EFF3108372B618
:1053100042680168116002684168516083F3108837
:10532000704710B5EFF3108472B603680B60006825
:10533000FFF7EBFF84F3108810BD704708B500211C
:10534000012001F097FC08BD08B5064B93F88030AA
:10535000052B05D0FEF759FF024B002283F8802071
:1053600008BD00BFE000002000B583B0054B0093EE
:10537000054B019369460548FFF7BEFC03B05DF895
:1053800004FB00BFD4000320AB5300089153000876
:1053900010B5044640680830FFF71EFC10B9002322
:1053A000237010BD01232370FBE708B510B101285D
:1053B00004D008BD1F2001F073FCFAE71F2001F0A4
:1053C0007DFCF6E708B50F4B1B68B3F1FF3F11D02A
:1053D0000D4A12680D480370C3F307214170C3F3EF
:1053E00007438370C270C2F307230371C2F30742FD
:1053F000427108BD0020FFF74DFF0028F9D1044895
:10540000F7E700BF8075FF1F8475FF1F9002002023
:105410005C80000870B58CB00024ADF81C40FFF72C
:10542000E9F9FFF7CFFF0546024606212046FFF7C0
:1054300061F96A79384B1A722A795A72EA789A7243
:10544000AA78DA726A781A732A785A734EF66E530B
:105450000993324B1B680CAA42F8103D06212E20FE
:10546000FFF748F92E4D05F1080210211820FFF72B
:1054700041F905F1180210210820FFF73BF9182126
:105480000120FFF767F9FFF72CF80DF12A030193CC
:105490000BAB00930DF12E03072221460120FEF7EE
:1054A00094FFBDF82C10BDF82E001E4B009307236F
:1054B0002246FFF7EAF8BDF82A10BDF82E0007AB28
:1054C000009302232246FFF7E0F80222114620460D
:1054D000FFF7E2F9144D01262E703046FEF70FFF5C
:1054E0006E7008232B7110226A71EC700F49A9604D
:1054F000AE700494039102940192009323463246C5
:1055000031463046FEF721FFAB780BB90CB070BDC9
:10551000FEF7C6FFFAE700BF0C0000208075FF1FF2
:105520005C800008F8820008E000002007B201005B
:1055300070B588B00446012827D04FF47A664FF43E
:10554000C8651D4B93F8810000F078FD022C22D035
:10555000194B83F880401A7E00200690059019337D
:1055600004930392154B0293082301930090034682
:1055700032462946FEF76AFE11490E20FEF763FF08
:1055800008B9012C11D008B070BD0B4BB3F8845092
:10559000B3F88660D5E7084B93F88030013BDBB267
:1055A000012BD5D8FEF731FED2E70649024B93F81E
:1055B000810000F0A7FDE6E7E000002084800008FD
:1055C0000C00002046E0010030B58DB06C46254D42
:1055D0000FCD0FC40FCD0FC495E80F0007C4237083
:1055E000FFF7C2FE0121022001F02EFB1E4A00211E
:1055F000042001F035FC6846FFF718FB78BBFFF785
:1056000009FFFFF7D3FA194C002584F880504FF6B4
:10561000FF73E382164A2946012001F021FC06208F
:10562000FFF7C1F801F084F9124B2A4604F1810119
:10563000284600F0D1FC104B2A4604F1820128468E
:1056400000F0CAFC657625768023A4F88430A02378
:10565000A4F886300120FFF76BFF0DB030BD00F0DD
:1056600025FFCCE78C800008194D0008E0000020E1
:10567000495300083D5300083B53000830B583B040
:1056800004464378052B04D03E2B19D0012003B0EB
:1056900030BD82881F4BDB8A9A420BD00120FFF776
:1056A00047FF1D48012303701A4BDB8A438001F03A
:1056B0003DF9EBE7174B0022DA8283F88020EDE713
:1056C000C378012B0AD00C2BE0D10DF106020DF1AD
:1056D0000701104BD88AFFF7ADF8D7E70D4D95F8C5
:1056E000810000F0ABFC95F88030042B0ED0094B04
:1056F000052283F88020B4F80530064AD382064894
:1057000000220270438001F011F9BFE7062285F8FC
:105710008020F0E7E0000020A807002008B5002165
:10572000042001F0A7FA08BD08B5012001F0D2FA63
:1057300008BD08B5012001F075FB08BD30B589B082
:1057400001AC084D0FCD0FC495E8070003C424F841
:10575000022B120C2270FFF777FD01A8FFF775FAF4
:1057600009B030BDCC8100087047000008B54FF08B
:10577000B042936843F40043936001F05DFA054A38
:10578000D2F8803023F0070343F00403C2F88030DE
:1057900008BD00BF0004005810B588B0FFF764FCD6
:1057A0000F4A0021202001F05BFB0E4C00940E4BB1
:1057B000019369460D48FFF7ADFB04F5867302932C
:1057C00004F50673039304F54974049440F23C53C2
:1057D000059302A8FFF70AFDFFF742FC08B010BDD1
:1057E000354F0008F801032069570008F1570008F9
:1057F00008B5FFF7A3FFFFF7E7FE0021012001F046
:1058000023FA08BD08B5FFF7B1FF0349002000F0F7
:1058100043FBFFF7C1FF08BDA8030020704708B590
:105820004FF0FF3001F082FA08BD08B500212020BA
:1058300001F020FA08BD08B5022001F04BFA08BDBE
:1058400008B5022001F0EEFA08BD000010B5064CC4
:10585000636843F400236360044B1B6898474FF46C
:105860000023A36010BD00BF000C00589802002068
:1058700082B04FF0B043D3F8502142F48012C3F805
:105880005021D3F8503103F480130193019B0A4B4C
:10589000D3F8D42042F40072C3F8D4201A6A42F438
:1058A00000721A6240BF20BF044AD36843F4004329
:1058B000D36002B0704700BF0008005800040058D1
:1058C00000B583B04FF0B0431A6D42F480121A65F0
:1058D0001B6D03F480130193019B094B1A6842F07E
:1058E00001021A601A6842F480321A602C20FCF718
:1058F00045F92D20FCF742F903B05DF804FB00BF29
:10590000000C0058024A536823F0010353607047AB
:10591000000C0058024B4FF480329A60704700BF71
:10592000000C005808B5044A536843F40013536050
:10593000FFF706FC08BD00BF000C005808B5FFF7D4
:10594000E7FB024B01229A6008BD00BF000C005823
:10595000024A536823F0020353607047000C00585A
:10596000044B4FF400329A605A6822F400325A60B5
:10597000704700BF000C005808B5044A536843F450
:1059800000335360FFF70CFC08BD00BF000C00584B
:1059900008B51A4BDB6813F0020F04D1174B5B6894
:1059A00013F4003F1ED0154BDB6813F0020F04D137
:1059B000124B5B6813F4003F17D0104BDB6813F0F9
:1059C000080F04D10D4B5B6813F4002F10D00B4B64
:1059D000DB6813F0200F04D1084B5B6813F4001F41
:1059E00009D008BDFFF7C8FFFBE7FFF7C5FFF8E7E1
:1059F000FFF72CFFF5E7FFF795FFF2E7000C0058E3
:105A000008B5FFF7DBFB024B02229A6008BD00BF1E
:105A1000000C005808B5094BDB6813F0080F05D1DE
:105A20008047064B4FF400229A6008BD044B186073
:105A3000024A536823F400235360F6E7000C005831
:105A400098020020024A536823F00803536070470D
:105A5000000C005808B5FFF709FC024B08229A60B9
:105A600008BD00BF000C005808B5144BDB6913F0EB
:105A7000020F04D0114B5B6813F0020F14D00F4BD0
:105A8000DB6913F0010F04D00C4B5B6813F0010FBE
:105A90000DD00A4BDB6913F0080F04D0074B5B688D
:105AA00013F0080F06D008BDFFF7AAFFFBE7FFF7CA
:105AB00045FFF8E7FFF7CEFFF5E700BF000C005801
:105AC000064A936A9BB2906A80B203E0034B9A6ADB
:105AD000034690B28342F9D1704700BF00280040CE
